:020000040800F2
:1000000000000320E50E0008350F0008350F00083A
:10001000350F0008350F0008350F000800000000FC
:10002000000000000000000000000000350F000884
:10003000350F000800000000350F00080904000813
:10004000350F0008350F0008350F0008350F000880
:10005000350F0008350F0008350F0008350F000870
:10006000350F0008350F0008350F0008350F000860
:10007000350F0008350F0008350F0008350F000850
:10008000350F0008350F0008350F0008350F000840
:10009000350F0008350F0008350F0008350F000830
:1000A000350F0008350F0008350F0008350F000820
:1000B000350F0008350F0008350F0008350F000810
:1000C000350F0008350F0008350F0008350F000800
:1000D000350F0008350F0008350F0008350F0008F0
:1000E000350F0008350F0008350F0008350F0008E0
:1000F000350F0008350F0008350F0008350F0008D0
:10010000350F0008350F0008350F0008350F0008BF
:10011000350F0008350F0008350F0008350F0008AF
:10012000350F0008350F0008350F0008350F00089F
:10013000350F0008350F0008350F0008350F00088F
:10014000350F0008350F0008350F0008350F00087F
:10015000350F0008350F0008350F0008350F00086F
:10016000350F0008350F0008350F0008350F00085F
:10017000350F0008350F0008350F0008000000009B
:10018000350F0008350F0008350F0008350F00083F
:10019000350F0008350F0008350F0008350F00082F
:0C01A000350F0008350F0008350F00086F
:1001AC000348044B834202D0034B03B118477047FA
:1001BC000000002000000020000000000548064957
:1001CC00091A891001EBD171491002D0034B03B10C
:1001DC0018477047000000200000002000000000BD
:1001EC0010B5064C237843B9FFF7DAFF044B13B173
:1001FC000448AFF300800123237010BD00000020E1
:10020C0000000000800F000808B5054B1BB1054924
:10021C000548AFF30080BDE80840FFF7CFBF00BF33
:10022C000000000004000020800F00082DE9F047BA
:10023C0000F06CF800F0C2F8314B324A5A60324A86
:10024C00F02182F82310002607229E601A6000F02D
:10025C0019FC00F08FFD00F0EFFA00F0D9FB00F074
:10026C00D3FD00F0F5FD00F04FF900F09DF964248A
:10027C00B0464FF00109142527466FF00106B9F17D
:10028C00000F0DD0DB2D14D17642C7EB440476B2AF
:10029C0027B24FF47848013DADB24FF000090CE0A5
:1002AC00142DF8D17642C7EB440476B227B24FF046
:1002BC0000080135ADB24FF001091FFA87FA16FBA1
:1002CC0005F45444A4B2434614222146284600F0B7
:1002DC00ABF80A2000F088F84FF6FF731422214681
:1002EC00284600F0A1F8A4F11503B3F58B7FC6D313
:1002FC007642CAEB440776B23FB24FF01F08BEE716
:10030C0010E000E01FBF020000ED00E082B000230F
:10031C0000930193254B1A6842F480321A601946F7
:10032C001A6802F400320192009A01320092019A8A
:10033C001AB9009AB2F5FA7FF2D10B6813F40033B4
:10034C0018BF01230193019B012B2ED1174B184988
:10035C001A6C42F080521A640A6842F440420A60F5
:10036C009A689A609A6842F400429A609A6842F4D9
:10037C00A0529A600F4A5A601A6842F080721A6052
:10038C001A689201FCD50C4A40F2057111609A680A
:10039C0022F0030242F002029A60044A936803F0CE
:1003AC000C03082BFAD102B07047FEE7003802406C
:1003BC0000700040042D4008003C0240084B094AE4
:1003CC00C3F88820D3F88C2042F44032C3F88C2038
:1003DC001A6842F080521A601A689200FCD5704775
:1003EC0000380240C0320044034B19681A68521A94
:1003FC008242FBD3704700BF1C000020024A1368E6
:10040C0001331360704700BF1C000020EF280AD88E
:10041C00B1F5A07F07D240004FF4F07303FB01014C
:10042C0001F150410A8070472DE9F74F57423FB216
:10043C0083468846164602FB02FA3C46B4421CDC54
:10044C0004FB04F9A4B204EB080292B23D460092FC
:10045C000EE005FB0592524508DC0BEB05001A4635
:10046C000099019380B2FFF7D1FF019B01352DB2AA
:10047C00B542EEDD013424B2E0E703B0BDE8F08F05
:10048C00F0B50EB277000324D0F800C09DF81C50D4
:10049C00BC40E4430CEA040CBA404CEA0202026091
:1004AC0042684FF0010C0CFA01FC8B4022EA0C0262
:1004BC001A43426083689DF814202340BA401343CA
:1004CC008360C3681C409DF8183003FA07F73C435F
:1004DC00102DC4600DD007294FF00F030AD908392D
:1004EC00426A89008B4022EA030305FA01F11943A1
:1004FC004162F0BD026AB1008B4022EA030305FAA7
:10050C0001F10B430362F4E77FB50E4A0E48136BFF
:10051C0000241026032543F00C0313630D212346FE
:10052C00CDE9014600950122FFF7AAFFCDE901466E
:10053C0000952346012202210448FFF7A1FF04B0D5
:10054C0070BD00BF00380240000C024000080240A1
:10055C0010B5074B074C4FF000529A614FF48023B3
:10056C00A3610146044800F085FC0423A36110BD7F
:10057C00000C0240000802400050014010B5074B2F
:10058C00074C4FF400529A614FF48023A36101464B
:10059C00044800F06FFC0423A36110BD000C024062
:1005AC00000802400050014008B5CA20FFF7D0FFF8
:1005BC00C320FFF7E3FF0820FFF7E0FF5020FFF711
:1005CC00DDFFCF20FFF7C4FF0020FFF7D7FFC120CE
:1005DC00FFF7D4FF3020FFF7D1FFED20FFF7B8FF76
:1005EC006420FFF7CBFF0320FFF7C8FF1220FFF7B3
:1005FC00C5FF8120FFF7C2FFE820FFF7A9FF852088
:10060C00FFF7BCFF0020FFF7B9FF7820FFF7B6FF1C
:10061C00CB20FFF79DFF3920FFF7B0FF2C20FFF711
:10062C00ADFF0020FFF7AAFF3420FFF7A7FF022041
:10063C00FFF7A4FFF720FFF78BFF2020FFF79EFFAB
:10064C00EA20FFF785FF0020FFF798FF0020FFF757
:10065C0095FFB120FFF77CFF0020FFF78FFF1B20D9
:10066C00FFF78CFFB620FFF773FF0A20FFF786FF1A
:10067C00A220FFF783FFC020FFF76AFF1020FFF7CF
:10068C007DFFC120FFF764FF1020FFF777FFC52027
:10069C00FFF75EFF4520FFF771FF1520FFF76EFF98
:1006AC00C720FFF755FF9020FFF768FF3620FFF7B4
:1006BC004FFFC820FFF762FFF220FFF749FF002031
:1006CC00FFF75CFFB020FFF743FFC220FFF756FF98
:1006DC00B620FFF73DFF0A20FFF750FFA720FFF7DA
:1006EC004DFF2720FFF74AFF0420FFF747FF2A2082
:1006FC00FFF72EFF0020FFF741FF0020FFF73EFF22
:10070C000020FFF73BFFEF20FFF738FF2B20FFF710
:10071C001FFF0020FFF732FF0020FFF72FFF012003
:10072C00FFF72CFF3F20FFF729FFF620FFF710FF04
:10073C000120FFF723FF0020FFF720FF0620FFF723
:10074C001DFF2C20FFF704FFC820FFF74DFE2620CD
:10075C00FFF7FEFE0120FFF711FFE020FFF7F8FE88
:10076C000F20FFF70BFF2920FFF708FF2420FFF7CE
:10077C0005FF0C20FFF702FF0E20FFF7FFFE0920FC
:10078C00FFF7FCFE4E20FFF7F9FE7820FFF7F6FE90
:10079C003C20FFF7F3FE0920FFF7F0FE1320FFF7D4
:1007AC00EDFE0520FFF7EAFE1720FFF7E7FE11200C
:1007BC00FFF7E4FE0020FFF7E1FEE120FFF7C8FEA3
:1007CC000020FFF7DBFE1620FFF7D8FE1B20FFF7FB
:1007DC00D5FE0420FFF7D2FE1120FFF7CFFE072035
:1007EC00FFF7CCFE3120FFF7C9FE3320FFF7C6FE22
:1007FC004220FFF7C3FE0520FFF7C0FE0C20FFF7D9
:10080C00BDFE0A20FFF7BAFE2820FFF7B7FE2F2007
:10081C00FFF7B4FE0F20FFF7B1FE1120FFF798FE93
:10082C00C820FFF7E1FD2920FFF792FE2C20BDE840
:10083C000840FFF78DBE00002DE9F04F6D4ADFF840
:10084C00C4B1136B6C4FDFF8C091DFF8C08185B079
:10085C00002403250E2643F06F034FF0090A13639F
:10086C0058462346CDE90146009502220A21FFF79E
:10087C0007FE234621463846CDE9014A009502225F
:10088C00FFF7FEFD23464846CDE9014600950222BE
:10089C000B21FFF7F5FD23464846CDE901460095AF
:1008AC0002220C21FFF7ECFD23463846CDE9014A24
:1008BC00009502220121FFF7E3FD23464046CDE9D6
:1008CC000146009502220621FFF7DAFD2346484631
:1008DC00CDE90146009502220621FFF7D1FD234602
:1008EC004046CDE9014A009502220A21FFF7C8FDD6
:1008FC0023463846CDE90146009502220A21FFF72E
:10090C00BFFD23463846CDE90146009502220B2156
:10091C00FFF7B6FD23465846CDE901460095022265
:10092C000721FFF7ADFD23462946CDE90146009589
:10093C0002223248FFF7A4FD2346CDE9014600957B
:10094C00022206212D48FFF79BFD23464046CDE9A8
:10095C000146009502220B21FFF792FD23464046EB
:10096C00CDE9014A009502220C21FFF789FD2346AF
:10097C0029464846CDE9014600950222FFF780FD45
:10098C0023463846CDE90146009502220821FFF79F
:10099C0077FD234651463846CDE9014600950222A3
:1009AC00FFF76EFD23464846CDE90146009502222D
:1009BC000421FFF765FD23465846CDE90146009515
:1009CC0002220621FFF75CFD2346CDE90146009586
:1009DC0002220A210A48FFF753FDCDE90146009592
:1009EC002346022207214046FFF74AFD05B0BDE829
:1009FC00F08F00BF0038024000040240000C02409F
:100A0C00001402400008024000000240001802409E
:100A1C00154A1649536C43F080635364A2F5504257
:100A2C00134B9360134BD36003F5700303F5A07362
:100A3C00136103F52023043353610F4B59600F49A5
:100A4C009960022119614FF0504199620C49D962A9
:100A5C004FF4A0711963196841F001011960012369
:100A6C0053629361704700BF003802401E000D01B5
:100A7C000100090003001D008468014004004301CB
:100A8C00E301E0012DE9FF47B44AB54F136BDFF8E2
:100A9C00D8A2DFF8D892DFF8D88200240C250326E0
:100AAC0043F07E031363214623463846CDE90145C6
:100ABC0000960222FFF7E4FC23463846CDE90145B7
:100ACC00009602220121FFF7DBFC0222234611468D
:100ADC003846CDE901450096FFF7D2FC2346314656
:100AEC003846CDE9014500960222FFF7C9FC2346A2
:100AFC003846CDE90145009602220421FFF7C0FCDF
:100B0C0023463846CDE90145009602220521FFF720
:100B1C00B7FC234629463846CDE90145009602220A
:100B2C00FFF7AEFC23463846CDE90145009602227C
:100B3C000D21FFF7A5FC23463846CDE9014500966B
:100B4C0002220E21FFF79CFC23463846CDE90145D5
:100B5C00009602220F21FFF793FC234621465046B4
:100B6C00CDE9014500960222FFF78AFC2346504648
:100B7C00CDE90145009602220121FFF781FC2346B5
:100B8C004846CDE90145009602220E21FFF778FC7C
:100B9C0023464846CDE90145009602220F21FFF776
:100BAC006FFC234621464846CDE9014500960222BA
:100BBC00FFF766FC23464846CDE901450096022224
:100BCC000121FFF75DFC23464046CDE90145009627
:100BDC0002220721FFF754FC23464046CDE901458C
:100BEC00009602220821FFF74BFC23464046CDE934
:100BFC000145009602220921FFF742FC234640469C
:100C0C00CDE90145009602220A21FFF739FC234663
:100C1C004046CDE90145009602220B21FFF730FC3E
:100C2C00234629464046CDE9014500960222FFF7AE
:100C3C0027FC23464046CDE90145009602220D21B2
:100C4C00FFF71EFC23464046CDE9014500960222E3
:100C5C000E21FFF715FC23464046CDE901450096D1
:100C6C0002220F21FFF70CFC23464846CDE9014533
:100C7C00009602220821FFF703FC23464846CDE9E3
:100C8C000145009602220921FFF7FAFB234648464C
:100C9C00CDE90145A9F50069009602220A21FFF76A
:100CAC00EFFB23464846CDE901450096022205217B
:100CBC00FFF7E6FB23464846CDE9014500960222A4
:100CCC000621FFF7DDFB23462146CDE901450096C1
:100CDC0002222448FFF7D4FB234621464046CDE9A7
:100CEC00014500960222FFF7CBFB23464046CDE997
:100CFC000145009602220121FFF7C2FB234638462C
:100D0C00CDE90145009602220B21FFF7B9FB2346E2
:100D1C005046CDE90145009602220421FFF7B0FBB5
:100D2C0023465046CDE90145009602220521FFF7E6
:100D3C00A7FB23465046CDE9014500960222082127
:100D4C00FFF79EFBCDE901450096234602220F21B9
:100D5C005046FFF795FB04B0BDE8F0870038024021
:100D6C00001402400008024000180240000C02402F
:100D7C00001002401F4A08B5936B43F001039363C4
:100D8C001D4B4FF4B0421A604FF4EA725A601B4A82
:100D9C009A601B4ADA609A699006FCD409221A619F
:100DAC000120FFF721FB144B1A4699698906FCD4E4
:100DBC000A21196193699806FCD42B2313610E4BFD
:100DCC001A4699698906FCD40E491961936913F086
:100DDC002003FBD15361084A93699B06FCD44FF066
:100DEC0050434FF0FF3243F8042B13F13E5FFAD11E
:100DFC0008BD00BF00380240400100A00070200078
:100E0C00720402020C620400F0B50F4A0F4E136B11
:100E1C0085B000250224052743F0200313633046D8
:100E2C002B462246CDE9015700940721FFF728FBFA
:100E3C00CDE9015700942B46224609213046FFF795
:100E4C001FFB05B0F0BD00BF00380240001402408B
:100E5C00064A536C43F480135364054B4CF21C321A
:100E6C001A601A6842F040021A607047003802405B
:100E7C000050014083689B07FCD5017383689A0777
:100E8C00FCD583681B06FCD4704700000F49D1F8D1
:100E9C00883043F47003C1F888300D4B1A68002079
:100EAC0042F001021A6098601A6822F0847222F4EF
:100EBC0080321A60074A5A601A6822F480221A603B
:100ECC00D8604FF000638B60704700BF00ED00E00E
:100EDC000038024010300024DFF834D0002103E049
:100EEC000C4B5B58435004310B480C4B42189A4244
:100EFC00F6D30B4A02E0002342F8043B094B9A421A
:100F0C00F9D3FFF7C3FF00F011F8FFF78FF9704723
:100F1C0000000320A00F00080000002000000020AB
:100F2C000000002020000020FEE7000070B50D4DF1
:100F3C000D4C641BA4100026A64209D10B4D0C4C81
:100F4C0000F018F8641BA4100026A64205D170BD51
:100F5C0055F8043B98470136EEE755F8043B9847A3
:100F6C000136F2E7980F0008980F0008980F000858
:100F7C009C0F0008F8B500BFF8BC08BC9E46704733
:0C0F8C00F8B500BFF8BC08BC9E467047DA
:040F98001502000836
:040F9C00ED0100085B
:0400000508000EE5FC
:00000001FF
